{
  "_format": "hh-sol-artifact-1",
  "contractName": "SocialApp",
  "sourceName": "contracts/SocialApp.sol",
  "abi": [
    {
      "anonymous": false,
      "inputs": [
        {
          "indexed": false,
          "internalType": "address",
          "name": "recipient",
          "type": "address"
        }
      ],
      "name": "AddInfo",
      "type": "event"
    },
    {
      "anonymous": false,
      "inputs": [
        {
          "indexed": false,
          "internalType": "address",
          "name": "recipient",
          "type": "address"
        },
        {
          "indexed": false,
          "internalType": "uint256",
          "name": "postId",
          "type": "uint256"
        }
      ],
      "name": "AddPost",
      "type": "event"
    },
    {
      "anonymous": false,
      "inputs": [
        {
          "indexed": false,
          "internalType": "address",
          "name": "recipient",
          "type": "address"
        }
      ],
      "name": "DeleteInfo",
      "type": "event"
    },
    {
      "anonymous": false,
      "inputs": [
        {
          "indexed": false,
          "internalType": "uint256",
          "name": "postId",
          "type": "uint256"
        },
        {
          "indexed": false,
          "internalType": "bool",
          "name": "isDeleted",
          "type": "bool"
        }
      ],
      "name": "DeletePost",
      "type": "event"
    },
    {
      "inputs": [
        {
          "internalType": "string",
          "name": "name",
          "type": "string"
        },
        {
          "internalType": "string",
          "name": "bio",
          "type": "string"
        },
        {
          "internalType": "bool",
          "name": "isDeleted",
          "type": "bool"
        }
      ],
      "name": "addInfo",
      "outputs": [],
      "stateMutability": "nonpayable",
      "type": "function"
    },
    {
      "inputs": [
        {
          "internalType": "string",
          "name": "postText",
          "type": "string"
        },
        {
          "internalType": "bool",
          "name": "isDeleted",
          "type": "bool"
        }
      ],
      "name": "addPost",
      "outputs": [],
      "stateMutability": "nonpayable",
      "type": "function"
    },
    {
      "inputs": [
        {
          "internalType": "bool",
          "name": "isDeleted",
          "type": "bool"
        }
      ],
      "name": "deleteInfo",
      "outputs": [],
      "stateMutability": "nonpayable",
      "type": "function"
    },
    {
      "inputs": [
        {
          "internalType": "uint256",
          "name": "postId",
          "type": "uint256"
        },
        {
          "internalType": "bool",
          "name": "isDeleted",
          "type": "bool"
        }
      ],
      "name": "deletePost",
      "outputs": [],
      "stateMutability": "nonpayable",
      "type": "function"
    },
    {
      "inputs": [],
      "name": "getAllPosts",
      "outputs": [
        {
          "components": [
            {
              "internalType": "uint256",
              "name": "id",
              "type": "uint256"
            },
            {
              "internalType": "address",
              "name": "username",
              "type": "address"
            },
            {
              "internalType": "string",
              "name": "postText",
              "type": "string"
            },
            {
              "internalType": "bool",
              "name": "isDeleted",
              "type": "bool"
            }
          ],
          "internalType": "struct SocialApp.Post[]",
          "name": "",
          "type": "tuple[]"
        }
      ],
      "stateMutability": "view",
      "type": "function"
    },
    {
      "inputs": [],
      "name": "getInfo",
      "outputs": [
        {
          "internalType": "string",
          "name": "name",
          "type": "string"
        },
        {
          "internalType": "string",
          "name": "bio",
          "type": "string"
        },
        {
          "internalType": "bool",
          "name": "isDeleted",
          "type": "bool"
        }
      ],
      "stateMutability": "view",
      "type": "function"
    },
    {
      "inputs": [],
      "name": "getMyPosts",
      "outputs": [
        {
          "components": [
            {
              "internalType": "uint256",
              "name": "id",
              "type": "uint256"
            },
            {
              "internalType": "address",
              "name": "username",
              "type": "address"
            },
            {
              "internalType": "string",
              "name": "postText",
              "type": "string"
            },
            {
              "internalType": "bool",
              "name": "isDeleted",
              "type": "bool"
            }
          ],
          "internalType": "struct SocialApp.Post[]",
          "name": "",
          "type": "tuple[]"
        }
      ],
      "stateMutability": "view",
      "type": "function"
    }
  ],
  "bytecode": "0x608060405234801561001057600080fd5b506117a9806100206000396000f3fe608060405234801561001057600080fd5b506004361061007d5760003560e01c80635a9b0b891161005b5780635a9b0b89146100da5780638c855bc7146100fa5780639b71a13714610116578063ca1cc6cd146101325761007d565b80631da6e17c14610082578063305611001461009e5780635950eb5b146100bc575b600080fd5b61009c60048036038101906100979190610f17565b61014e565b005b6100a66102d4565b6040516100b39190611180565b60405180910390f35b6100c46105ed565b6040516100d19190611180565b60405180910390f35b6100e261092d565b6040516100f1939291906111fb565b60405180910390f35b610114600480360381019061010f919061126c565b610ae9565b005b610130600480360381019061012b91906112ac565b610bca565b005b61014c60048036038101906101479190611337565b610cb1565b005b600080805490509050600060405180608001604052808381526020013373ffffffffffffffffffffffffffffffffffffffff16815260200185815260200184151581525090806001815401808255809150506001900390600052602060002090600402016000909190919091506000820151816000015560208201518160010160006101000a81548173ffffffffffffffffffffffffffffffffffffffff021916908373ffffffffffffffffffffffffffffffffffffffff16021790555060408201518160020190816102219190611570565b5060608201518160030160006101000a81548160ff0219169083151502179055505050336001600083815260200190815260200160002060006101000a81548173ffffffffffffffffffffffffffffffffffffffff021916908373ffffffffffffffffffffffffffffffffffffffff1602179055507f211310f5bdfd60139328b0e0b1235a8d92df3ccfc99b9b80da0d81cbac493aea33826040516102c7929190611660565b60405180910390a1505050565b60606000808054905067ffffffffffffffff8111156102f6576102f5610db4565b5b60405190808252806020026020018201604052801561032f57816020015b61031c610d45565b8152602001906001900390816103145790505b5090506000805b6000805490508110156104f557600015156000828154811061035b5761035a611689565b5b906000526020600020906004020160030160009054906101000a900460ff161515036104e8576000818154811061039557610394611689565b5b9060005260206000209060040201604051806080016040529081600082015481526020016001820160009054906101000a900473ffffffffffffffffffffffffffffffffffffffff1673ffffffffffffffffffffffffffffffffffffffff1673ffffffffffffffffffffffffffffffffffffffff16815260200160028201805461041e90611393565b80601f016020809104026020016040519081016040528092919081815260200182805461044a90611393565b80156104975780601f1061046c57610100808354040283529160200191610497565b820191906000526020600020905b81548152906001019060200180831161047a57829003601f168201915b505050505081526020016003820160009054906101000a900460ff1615151515815250508383815181106104ce576104cd611689565b5b602002602001018190525081806104e4906116e7565b9250505b8080600101915050610336565b5060008167ffffffffffffffff81111561051257610511610db4565b5b60405190808252806020026020018201604052801561054b57816020015b610538610d45565b8152602001906001900390816105305790505b50905060005b6000805490508110156105e357600015156000828154811061057657610575611689565b5b906000526020600020906004020160030160009054906101000a900460ff161515036105d6578381815181106105af576105ae611689565b5b60200260200101518282815181106105ca576105c9611689565b5b60200260200101819052505b8080600101915050610551565b5080935050505090565b60606000808054905067ffffffffffffffff81111561060f5761060e610db4565b5b60405190808252806020026020018201604052801561064857816020015b610635610d45565b81526020019060019003908161062d5790505b5090506000805b600080549050811015610879573373ffffffffffffffffffffffffffffffffffffffff166001600083815260200190815260200160002060009054906101000a900473ffffffffffffffffffffffffffffffffffffffff1673ffffffffffffffffffffffffffffffffffffffff16148015610700575060001515600082815481106106dd576106dc611689565b5b906000526020600020906004020160030160009054906101000a900460ff161515145b1561086c576000818154811061071957610718611689565b5b9060005260206000209060040201604051806080016040529081600082015481526020016001820160009054906101000a900473ffffffffffffffffffffffffffffffffffffffff1673ffffffffffffffffffffffffffffffffffffffff1673ffffffffffffffffffffffffffffffffffffffff1681526020016002820180546107a290611393565b80601f01602080910402602001604051908101604052809291908181526020018280546107ce90611393565b801561081b5780601f106107f05761010080835404028352916020019161081b565b820191906000526020600020905b8154815290600101906020018083116107fe57829003601f168201915b505050505081526020016003820160009054906101000a900460ff16151515158152505083838151811061085257610851611689565b5b60200260200101819052508180610868906116e7565b9250505b808060010191505061064f565b5060008167ffffffffffffffff81111561089657610895610db4565b5b6040519080825280602002602001820160405280156108cf57816020015b6108bc610d45565b8152602001906001900390816108b45790505b50905060005b82811015610923578381815181106108f0576108ef611689565b5b602002602001015182828151811061090b5761090a611689565b5b602002602001018190525080806001019150506108d5565b5080935050505090565b606080600080600260003373ffffffffffffffffffffffffffffffffffffffff1673ffffffffffffffffffffffffffffffffffffffff16815260200190815260200160002060405180606001604052908160008201805461098d90611393565b80601f01602080910402602001604051908101604052809291908181526020018280546109b990611393565b8015610a065780601f106109db57610100808354040283529160200191610a06565b820191906000526020600020905b8154815290600101906020018083116109e957829003601f168201915b50505050508152602001600182018054610a1f90611393565b80601f0160208091040260200160405190810160405280929190818152602001828054610a4b90611393565b8015610a985780601f10610a6d57610100808354040283529160200191610a98565b820191906000526020600020905b815481529060010190602001808311610a7b57829003601f168201915b505050505081526020016002820160009054906101000a900460ff16151515158152505090508060400151610ae25780600001518160200151826040015193509350935050610ae4565b505b909192565b3373ffffffffffffffffffffffffffffffffffffffff166001600084815260200190815260200160002060009054906101000a900473ffffffffffffffffffffffffffffffffffffffff1673ffffffffffffffffffffffffffffffffffffffff1603610bc6578060008381548110610b6457610b63611689565b5b906000526020600020906004020160030160006101000a81548160ff0219169083151502179055507f50de60758261258765d60f3764f52b012fb4289c1120010bf8b34f7a7976f8158282604051610bbd92919061172f565b60405180910390a15b5050565b6040518060600160405280848152602001838152602001821515815250600260003373ffffffffffffffffffffffffffffffffffffffff1673ffffffffffffffffffffffffffffffffffffffff1681526020019081526020016000206000820151816000019081610c3b9190611570565b506020820151816001019081610c519190611570565b5060408201518160020160006101000a81548160ff0219169083151502179055509050507f3d96212905448547234a82f74a19f39c50c21c9e7d4229e919cd69a3aa416b3033604051610ca49190611758565b60405180910390a1505050565b80600260003373ffffffffffffffffffffffffffffffffffffffff1673ffffffffffffffffffffffffffffffffffffffff16815260200190815260200160002060020160006101000a81548160ff0219169083151502179055507f54e2d7b6adf0ff8dd18910bae43d194e1d474b4af31446af3b2d3887df498e6733604051610d3a9190611758565b60405180910390a150565b604051806080016040528060008152602001600073ffffffffffffffffffffffffffffffffffffffff168152602001606081526020016000151581525090565b6000604051905090565b600080fd5b600080fd5b600080fd5b600080fd5b6000601f19601f8301169050919050565b7f4e487b7100000000000000000000000000000000000000000000000000000000600052604160045260246000fd5b610dec82610da3565b810181811067ffffffffffffffff82111715610e0b57610e0a610db4565b5b80604052505050565b6000610e1e610d85565b9050610e2a8282610de3565b919050565b600067ffffffffffffffff821115610e4a57610e49610db4565b5b610e5382610da3565b9050602081019050919050565b82818337600083830152505050565b6000610e82610e7d84610e2f565b610e14565b905082815260208101848484011115610e9e57610e9d610d9e565b5b610ea9848285610e60565b509392505050565b600082601f830112610ec657610ec5610d99565b5b8135610ed6848260208601610e6f565b91505092915050565b60008115159050919050565b610ef481610edf565b8114610eff57600080fd5b50565b600081359050610f1181610eeb565b92915050565b60008060408385031215610f2e57610f2d610d8f565b5b600083013567ffffffffffffffff811115610f4c57610f4b610d94565b5b610f5885828601610eb1565b9250506020610f6985828601610f02565b9150509250929050565b600081519050919050565b600082825260208201905092915050565b6000819050602082019050919050565b6000819050919050565b610fb281610f9f565b82525050565b600073ffffffffffffffffffffffffffffffffffffffff82169050919050565b6000610fe382610fb8565b9050919050565b610ff381610fd8565b82525050565b600081519050919050565b600082825260208201905092915050565b60005b83811015611033578082015181840152602081019050611018565b60008484015250505050565b600061104a82610ff9565b6110548185611004565b9350611064818560208601611015565b61106d81610da3565b840191505092915050565b61108181610edf565b82525050565b600060808301600083015161109f6000860182610fa9565b5060208301516110b26020860182610fea565b50604083015184820360408601526110ca828261103f565b91505060608301516110df6060860182611078565b508091505092915050565b60006110f68383611087565b905092915050565b6000602082019050919050565b600061111682610f73565b6111208185610f7e565b93508360208202850161113285610f8f565b8060005b8581101561116e578484038952815161114f85826110ea565b945061115a836110fe565b925060208a01995050600181019050611136565b50829750879550505050505092915050565b6000602082019050818103600083015261119a818461110b565b905092915050565b600082825260208201905092915050565b60006111be82610ff9565b6111c881856111a2565b93506111d8818560208601611015565b6111e181610da3565b840191505092915050565b6111f581610edf565b82525050565b6000606082019050818103600083015261121581866111b3565b9050818103602083015261122981856111b3565b905061123860408301846111ec565b949350505050565b61124981610f9f565b811461125457600080fd5b50565b60008135905061126681611240565b92915050565b6000806040838503121561128357611282610d8f565b5b600061129185828601611257565b92505060206112a285828601610f02565b9150509250929050565b6000806000606084860312156112c5576112c4610d8f565b5b600084013567ffffffffffffffff8111156112e3576112e2610d94565b5b6112ef86828701610eb1565b935050602084013567ffffffffffffffff8111156113105761130f610d94565b5b61131c86828701610eb1565b925050604061132d86828701610f02565b9150509250925092565b60006020828403121561134d5761134c610d8f565b5b600061135b84828501610f02565b91505092915050565b7f4e487b7100000000000000000000000000000000000000000000000000000000600052602260045260246000fd5b600060028204905060018216806113ab57607f821691505b6020821081036113be576113bd611364565b5b50919050565b60008190508160005260206000209050919050565b60006020601f8301049050919050565b600082821b905092915050565b6000600883026114267fffffffffffffffffffffffffffffffffffffffffffffffffffffffffffffffff826113e9565b61143086836113e9565b95508019841693508086168417925050509392505050565b6000819050919050565b600061146d61146861146384610f9f565b611448565b610f9f565b9050919050565b6000819050919050565b61148783611452565b61149b61149382611474565b8484546113f6565b825550505050565b600090565b6114b06114a3565b6114bb81848461147e565b505050565b5b818110156114df576114d46000826114a8565b6001810190506114c1565b5050565b601f821115611524576114f5816113c4565b6114fe846113d9565b8101602085101561150d578190505b611521611519856113d9565b8301826114c0565b50505b505050565b600082821c905092915050565b600061154760001984600802611529565b1980831691505092915050565b60006115608383611536565b9150826002028217905092915050565b61157982610ff9565b67ffffffffffffffff81111561159257611591610db4565b5b61159c8254611393565b6115a78282856114e3565b600060209050601f8311600181146115da57600084156115c8578287015190505b6115d28582611554565b86555061163a565b601f1984166115e8866113c4565b60005b82811015611610578489015182556001820191506020850194506020810190506115eb565b8683101561162d5784890151611629601f891682611536565b8355505b6001600288020188555050505b505050505050565b61164b81610fd8565b82525050565b61165a81610f9f565b82525050565b60006040820190506116756000830185611642565b6116826020830184611651565b9392505050565b7f4e487b7100000000000000000000000000000000000000000000000000000000600052603260045260246000fd5b7f4e487b7100000000000000000000000000000000000000000000000000000000600052601160045260246000fd5b60006116f282610f9f565b91507fffffffffffffffffffffffffffffffffffffffffffffffffffffffffffffffff8203611724576117236116b8565b5b600182019050919050565b60006040820190506117446000830185611651565b61175160208301846111ec565b9392505050565b600060208201905061176d6000830184611642565b9291505056fea2646970667358221220db023ba7c2dbce72312dfe103f8f63a14a9246a2586051944ed6a042aa3f0acb64736f6c63430008180033",
  "linkReferences": {},
  "deployedLinkReferences": {}
}